{
  "_format": "hh-sol-artifact-1",
  "contractName": "bearchainAI",
  "sourceName": "contracts/bearchainAI.sol",
  "abi": [
    {
      "inputs": [],
      "stateMutability": "nonpayable",
      "type": "constructor"
    },
    {
      "anonymous": false,
      "inputs": [
        {
          "indexed": true,
          "internalType": "address",
          "name": "owner",
          "type": "address"
        },
        {
          "indexed": true,
          "internalType": "address",
          "name": "approved",
          "type": "address"
        },
        {
          "indexed": true,
          "internalType": "uint256",
          "name": "tokenId",
          "type": "uint256"
        }
      ],
      "name": "Approval",
      "type": "event"
    },
    {
      "anonymous": false,
      "inputs": [
        {
          "indexed": true,
          "internalType": "address",
          "name": "owner",
          "type": "address"
        },
        {
          "indexed": true,
          "internalType": "address",
          "name": "operator",
          "type": "address"
        },
        {
          "indexed": false,
          "internalType": "bool",
          "name": "approved",
          "type": "bool"
        }
      ],
      "name": "ApprovalForAll",
      "type": "event"
    },
    {
      "anonymous": false,
      "inputs": [
        {
          "indexed": true,
          "internalType": "address",
          "name": "previousOwner",
          "type": "address"
        },
        {
          "indexed": true,
          "internalType": "address",
          "name": "newOwner",
          "type": "address"
        }
      ],
      "name": "OwnershipTransferred",
      "type": "event"
    },
    {
      "anonymous": false,
      "inputs": [
        {
          "indexed": true,
          "internalType": "address",
          "name": "from",
          "type": "address"
        },
        {
          "indexed": true,
          "internalType": "address",
          "name": "to",
          "type": "address"
        },
        {
          "indexed": true,
          "internalType": "uint256",
          "name": "tokenId",
          "type": "uint256"
        }
      ],
      "name": "Transfer",
      "type": "event"
    },
    {
      "inputs": [],
      "name": "_tokenIdCounter",
      "outputs": [
        {
          "internalType": "uint256",
          "name": "_value",
          "type": "uint256"
        }
      ],
      "stateMutability": "view",
      "type": "function"
    },
    {
      "inputs": [
        {
          "internalType": "address",
          "name": "to",
          "type": "address"
        },
        {
          "internalType": "uint256",
          "name": "tokenId",
          "type": "uint256"
        }
      ],
      "name": "approve",
      "outputs": [],
      "stateMutability": "nonpayable",
      "type": "function"
    },
    {
      "inputs": [
        {
          "internalType": "string",
          "name": "",
          "type": "string"
        }
      ],
      "name": "authorToKudos",
      "outputs": [
        {
          "internalType": "uint256",
          "name": "",
          "type": "uint256"
        }
      ],
      "stateMutability": "view",
      "type": "function"
    },
    {
      "inputs": [
        {
          "internalType": "uint256",
          "name": "",
          "type": "uint256"
        }
      ],
      "name": "authors",
      "outputs": [
        {
          "internalType": "string",
          "name": "",
          "type": "string"
        }
      ],
      "stateMutability": "view",
      "type": "function"
    },
    {
      "inputs": [
        {
          "internalType": "address",
          "name": "owner",
          "type": "address"
        }
      ],
      "name": "balanceOf",
      "outputs": [
        {
          "internalType": "uint256",
          "name": "",
          "type": "uint256"
        }
      ],
      "stateMutability": "view",
      "type": "function"
    },
    {
      "inputs": [],
      "name": "external_url",
      "outputs": [
        {
          "internalType": "string",
          "name": "",
          "type": "string"
        }
      ],
      "stateMutability": "view",
      "type": "function"
    },
    {
      "inputs": [
        {
          "internalType": "uint256",
          "name": "tokenId",
          "type": "uint256"
        }
      ],
      "name": "getApproved",
      "outputs": [
        {
          "internalType": "address",
          "name": "",
          "type": "address"
        }
      ],
      "stateMutability": "view",
      "type": "function"
    },
    {
      "inputs": [],
      "name": "image_data_url",
      "outputs": [
        {
          "internalType": "string",
          "name": "",
          "type": "string"
        }
      ],
      "stateMutability": "view",
      "type": "function"
    },
    {
      "inputs": [
        {
          "internalType": "address",
          "name": "owner",
          "type": "address"
        },
        {
          "internalType": "address",
          "name": "operator",
          "type": "address"
        }
      ],
      "name": "isApprovedForAll",
      "outputs": [
        {
          "internalType": "bool",
          "name": "",
          "type": "bool"
        }
      ],
      "stateMutability": "view",
      "type": "function"
    },
    {
      "inputs": [
        {
          "internalType": "string",
          "name": "title",
          "type": "string"
        },
        {
          "internalType": "string",
          "name": "content",
          "type": "string"
        },
        {
          "internalType": "string",
          "name": "fandom",
          "type": "string"
        },
        {
          "components": [
            {
              "internalType": "string",
              "name": "author",
              "type": "string"
            },
            {
              "internalType": "uint256",
              "name": "cites",
              "type": "uint256"
            }
          ],
          "internalType": "struct bearchainAI.Kudo[]",
          "name": "kudos",
          "type": "tuple[]"
        }
      ],
      "name": "mint",
      "outputs": [],
      "stateMutability": "nonpayable",
      "type": "function"
    },
    {
      "inputs": [],
      "name": "name",
      "outputs": [
        {
          "internalType": "string",
          "name": "",
          "type": "string"
        }
      ],
      "stateMutability": "view",
      "type": "function"
    },
    {
      "inputs": [],
      "name": "owner",
      "outputs": [
        {
          "internalType": "address",
          "name": "",
          "type": "address"
        }
      ],
      "stateMutability": "view",
      "type": "function"
    },
    {
      "inputs": [
        {
          "internalType": "uint256",
          "name": "tokenId",
          "type": "uint256"
        }
      ],
      "name": "ownerOf",
      "outputs": [
        {
          "internalType": "address",
          "name": "",
          "type": "address"
        }
      ],
      "stateMutability": "view",
      "type": "function"
    },
    {
      "inputs": [],
      "name": "renounceOwnership",
      "outputs": [],
      "stateMutability": "nonpayable",
      "type": "function"
    },
    {
      "inputs": [
        {
          "internalType": "address",
          "name": "from",
          "type": "address"
        },
        {
          "internalType": "address",
          "name": "to",
          "type": "address"
        },
        {
          "internalType": "uint256",
          "name": "tokenId",
          "type": "uint256"
        }
      ],
      "name": "safeTransferFrom",
      "outputs": [],
      "stateMutability": "nonpayable",
      "type": "function"
    },
    {
      "inputs": [
        {
          "internalType": "address",
          "name": "from",
          "type": "address"
        },
        {
          "internalType": "address",
          "name": "to",
          "type": "address"
        },
        {
          "internalType": "uint256",
          "name": "tokenId",
          "type": "uint256"
        },
        {
          "internalType": "bytes",
          "name": "data",
          "type": "bytes"
        }
      ],
      "name": "safeTransferFrom",
      "outputs": [],
      "stateMutability": "nonpayable",
      "type": "function"
    },
    {
      "inputs": [
        {
          "internalType": "address",
          "name": "operator",
          "type": "address"
        },
        {
          "internalType": "bool",
          "name": "approved",
          "type": "bool"
        }
      ],
      "name": "setApprovalForAll",
      "outputs": [],
      "stateMutability": "nonpayable",
      "type": "function"
    },
    {
      "inputs": [
        {
          "internalType": "string",
          "name": "_url",
          "type": "string"
        }
      ],
      "name": "setExternalUrl",
      "outputs": [],
      "stateMutability": "nonpayable",
      "type": "function"
    },
    {
      "inputs": [
        {
          "internalType": "string",
          "name": "_url",
          "type": "string"
        }
      ],
      "name": "setImageDataUrl",
      "outputs": [],
      "stateMutability": "nonpayable",
      "type": "function"
    },
    {
      "inputs": [
        {
          "internalType": "bytes4",
          "name": "interfaceId",
          "type": "bytes4"
        }
      ],
      "name": "supportsInterface",
      "outputs": [
        {
          "internalType": "bool",
          "name": "",
          "type": "bool"
        }
      ],
      "stateMutability": "view",
      "type": "function"
    },
    {
      "inputs": [],
      "name": "symbol",
      "outputs": [
        {
          "internalType": "string",
          "name": "",
          "type": "string"
        }
      ],
      "stateMutability": "view",
      "type": "function"
    },
    {
      "inputs": [
        {
          "internalType": "uint256",
          "name": "",
          "type": "uint256"
        }
      ],
      "name": "tokenIdToFanfic",
      "outputs": [
        {
          "internalType": "string",
          "name": "title",
          "type": "string"
        },
        {
          "internalType": "string",
          "name": "content",
          "type": "string"
        },
        {
          "internalType": "string",
          "name": "fandom",
          "type": "string"
        }
      ],
      "stateMutability": "view",
      "type": "function"
    },
    {
      "inputs": [
        {
          "internalType": "uint256",
          "name": "tokenId",
          "type": "uint256"
        }
      ],
      "name": "tokenURI",
      "outputs": [
        {
          "internalType": "string",
          "name": "",
          "type": "string"
        }
      ],
      "stateMutability": "view",
      "type": "function"
    },
    {
      "inputs": [],
      "name": "totalAuthors",
      "outputs": [
        {
          "internalType": "uint256",
          "name": "",
          "type": "uint256"
        }
      ],
      "stateMutability": "view",
      "type": "function"
    },
    {
      "inputs": [
        {
          "internalType": "address",
          "name": "from",
          "type": "address"
        },
        {
          "internalType": "address",
          "name": "to",
          "type": "address"
        },
        {
          "internalType": "uint256",
          "name": "tokenId",
          "type": "uint256"
        }
      ],
      "name": "transferFrom",
      "outputs": [],
      "stateMutability": "nonpayable",
      "type": "function"
    },
    {
      "inputs": [
        {
          "internalType": "address",
          "name": "newOwner",
          "type": "address"
        }
      ],
      "name": "transferOwnership",
      "outputs": [],
      "stateMutability": "nonpayable",
      "type": "function"
    }
  ],
  "bytecode": "0x60806040526040518060400160405280601c81526020017f68747470733a2f2f6578616d706c652e636f6d2f6578706c6f72652f00000000815250600c90816200004a919062000484565b5060405180606001604052806021815260200162004bed60219139600d908162000075919062000484565b503480156200008357600080fd5b506040518060400160405280600b81526020017f62656172636861696e41490000000000000000000000000000000000000000008152506040518060400160405280600581526020017f4243484149000000000000000000000000000000000000000000000000000000815250816000908162000101919062000484565b50806001908162000113919062000484565b505050620001366200012a6200013c60201b60201c565b6200014460201b60201c565b6200056b565b600033905090565b6000600760009054906101000a900473ffffffffffffffffffffffffffffffffffffffff16905081600760006101000a81548173ffffffffffffffffffffffffffffffffffffffff021916908373ffffffffffffffffffffffffffffffffffffffff1602179055508173ffffffffffffffffffffffffffffffffffffffff168173ffffffffffffffffffffffffffffffffffffffff167f8be0079c531659141344cd1fd0a4f28419497f9722a3daafe3b4186f6b6457e060405160405180910390a35050565b600081519050919050565b7f4e487b7100000000000000000000000000000000000000000000000000000000600052604160045260246000fd5b7f4e487b7100000000000000000000000000000000000000000000000000000000600052602260045260246000fd5b600060028204905060018216806200028c57607f821691505b602082108103620002a257620002a162000244565b5b50919050565b60008190508160005260206000209050919050565b60006020601f8301049050919050565b600082821b905092915050565b6000600883026200030c7fffffffffffffffffffffffffffffffffffffffffffffffffffffffffffffffff82620002cd565b620003188683620002cd565b95508019841693508086168417925050509392505050565b6000819050919050565b6000819050919050565b6000620003656200035f620003598462000330565b6200033a565b62000330565b9050919050565b6000819050919050565b620003818362000344565b6200039962000390826200036c565b848454620002da565b825550505050565b600090565b620003b0620003a1565b620003bd81848462000376565b505050565b5b81811015620003e557620003d9600082620003a6565b600181019050620003c3565b5050565b601f8211156200043457620003fe81620002a8565b6200040984620002bd565b8101602085101562000419578190505b620004316200042885620002bd565b830182620003c2565b50505b505050565b600082821c905092915050565b6000620004596000198460080262000439565b1980831691505092915050565b600062000474838362000446565b9150826002028217905092915050565b6200048f826200020a565b67ffffffffffffffff811115620004ab57620004aa62000215565b5b620004b7825462000273565b620004c4828285620003e9565b600060209050601f831160018114620004fc5760008415620004e7578287015190505b620004f3858262000466565b86555062000563565b601f1984166200050c86620002a8565b60005b8281101562000536578489015182556001820191506020850194506020810190506200050f565b8683101562000556578489015162000552601f89168262000446565b8355505b6001600288020188555050505b505050505050565b614672806200057b6000396000f3fe608060405234801561001057600080fd5b506004361061018e5760003560e01c806384c4bd4b116100de578063aa6d52e311610097578063c87b56dd11610071578063c87b56dd14610485578063e41146ec146104b5578063e985e9c5146104d1578063f2fde38b146105015761018e565b8063aa6d52e314610419578063b88d4fde1461044b578063c2827051146104675761018e565b806384c4bd4b146103555780638da5cb5b1461037357806395bc77be1461039157806395d89b41146103af578063a0237fcb146103cd578063a22cb465146103fd5761018e565b80632a78ff371161014b5780636352211e116101255780636352211e146102cd57806370a08231146102fd578063715018a61461032d57806381999a7a146103375761018e565b80632a78ff37146102655780633db804da1461028157806342842e0e146102b15761018e565b806301ffc9a71461019357806306fdde03146101c3578063081812fc146101e1578063095ea7b31461021157806323b872dd1461022d57806326d58ad314610249575b600080fd5b6101ad60048036038101906101a8919061296d565b61051d565b6040516101ba91906129b5565b60405180910390f35b6101cb6105ff565b6040516101d89190612a60565b60405180910390f35b6101fb60048036038101906101f69190612ab8565b610691565b6040516102089190612b26565b60405180910390f35b61022b60048036038101906102269190612b6d565b6106d7565b005b61024760048036038101906102429190612bad565b6107ee565b005b610263600480360381019061025e9190612d35565b61084e565b005b61027f600480360381019061027a9190612d35565b610869565b005b61029b60048036038101906102969190612ab8565b610884565b6040516102a89190612a60565b60405180910390f35b6102cb60048036038101906102c69190612bad565b610930565b005b6102e760048036038101906102e29190612ab8565b610950565b6040516102f49190612b26565b60405180910390f35b61031760048036038101906103129190612d7e565b6109d6565b6040516103249190612dba565b60405180910390f35b610335610a8d565b005b61033f610aa1565b60405161034c9190612a60565b60405180910390f35b61035d610b2f565b60405161036a9190612dba565b60405180910390f35b61037b610b3b565b6040516103889190612b26565b60405180910390f35b610399610b65565b6040516103a69190612dba565b60405180910390f35b6103b7610b72565b6040516103c49190612a60565b60405180910390f35b6103e760048036038101906103e29190612d35565b610c04565b6040516103f49190612dba565b60405180910390f35b61041760048036038101906104129190612e01565b610c32565b005b610433600480360381019061042e9190612ab8565b610c48565b60405161044293929190612e41565b60405180910390f35b61046560048036038101906104609190612f2e565b610e0a565b005b61046f610e6c565b60405161047c9190612a60565b60405180910390f35b61049f600480360381019061049a9190612ab8565b610efa565b6040516104ac9190612a60565b60405180910390f35b6104cf60048036038101906104ca919061310d565b6112a4565b005b6104eb60048036038101906104e691906131e4565b611532565b6040516104f891906129b5565b60405180910390f35b61051b60048036038101906105169190612d7e565b6115c6565b005b60007f80ac58cd000000000000000000000000000000000000000000000000000000007bffffffffffffffffffffffffffffffffffffffffffffffffffffffff1916827bffffffffffffffffffffffffffffffffffffffffffffffffffffffff191614806105e857507f5b5e139f000000000000000000000000000000000000000000000000000000007bffffffffffffffffffffffffffffffffffffffffffffffffffffffff1916827bffffffffffffffffffffffffffffffffffffffffffffffffffffffff1916145b806105f857506105f782611649565b5b9050919050565b60606000805461060e90613253565b80601f016020809104026020016040519081016040528092919081815260200182805461063a90613253565b80156106875780601f1061065c57610100808354040283529160200191610687565b820191906000526020600020905b81548152906001019060200180831161066a57829003601f168201915b5050505050905090565b600061069c826116b3565b6004600083815260200190815260200160002060009054906101000a900473ffffffffffffffffffffffffffffffffffffffff169050919050565b60006106e282610950565b90508073ffffffffffffffffffffffffffffffffffffffff168373ffffffffffffffffffffffffffffffffffffffff1603610752576040517f08c379a0000000000000000000000000000000000000000000000000000000008152600401610749906132f6565b60405180910390fd5b8073ffffffffffffffffffffffffffffffffffffffff166107716116fe565b73ffffffffffffffffffffffffffffffffffffffff1614806107a0575061079f8161079a6116fe565b611532565b5b6107df576040517f08c379a00000000000000000000000000000000000000000000000000000000081526004016107d690613388565b60405180910390fd5b6107e98383611706565b505050565b6107ff6107f96116fe565b826117bf565b61083e576040517f08c379a00000000000000000000000000000000000000000000000000000000081526004016108359061341a565b60405180910390fd5b610849838383611854565b505050565b610856611b4d565b80600c908161086591906135e6565b5050565b610871611b4d565b80600d908161088091906135e6565b5050565b600b818154811061089457600080fd5b9060005260206000200160009150905080546108af90613253565b80601f01602080910402602001604051908101604052809291908181526020018280546108db90613253565b80156109285780601f106108fd57610100808354040283529160200191610928565b820191906000526020600020905b81548152906001019060200180831161090b57829003601f168201915b505050505081565b61094b83838360405180602001604052806000815250610e0a565b505050565b60008061095c83611bcb565b9050600073ffffffffffffffffffffffffffffffffffffffff168173ffffffffffffffffffffffffffffffffffffffff16036109cd576040517f08c379a00000000000000000000000000000000000000000000000000000000081526004016109c490613704565b60405180910390fd5b80915050919050565b60008073ffffffffffffffffffffffffffffffffffffffff168273ffffffffffffffffffffffffffffffffffffffff1603610a46576040517f08c379a0000000000000000000000000000000000000000000000000000000008152600401610a3d90613796565b60405180910390fd5b600360008373ffffffffffffffffffffffffffffffffffffffff1673ffffffffffffffffffffffffffffffffffffffff168152602001908152602001600020549050919050565b610a95611b4d565b610a9f6000611c08565b565b600d8054610aae90613253565b80601f0160208091040260200160405190810160405280929190818152602001828054610ada90613253565b8015610b275780601f10610afc57610100808354040283529160200191610b27565b820191906000526020600020905b815481529060010190602001808311610b0a57829003601f168201915b505050505081565b60088060000154905081565b6000600760009054906101000a900473ffffffffffffffffffffffffffffffffffffffff16905090565b6000600b80549050905090565b606060018054610b8190613253565b80601f0160208091040260200160405190810160405280929190818152602001828054610bad90613253565b8015610bfa5780601f10610bcf57610100808354040283529160200191610bfa565b820191906000526020600020905b815481529060010190602001808311610bdd57829003601f168201915b5050505050905090565b600a818051602081018201805184825260208301602085012081835280955050505050506000915090505481565b610c44610c3d6116fe565b8383611cce565b5050565b6009602052806000526040600020600091509050806000018054610c6b90613253565b80601f0160208091040260200160405190810160405280929190818152602001828054610c9790613253565b8015610ce45780601f10610cb957610100808354040283529160200191610ce4565b820191906000526020600020905b815481529060010190602001808311610cc757829003601f168201915b505050505090806001018054610cf990613253565b80601f0160208091040260200160405190810160405280929190818152602001828054610d2590613253565b8015610d725780601f10610d4757610100808354040283529160200191610d72565b820191906000526020600020905b815481529060010190602001808311610d5557829003601f168201915b505050505090806002018054610d8790613253565b80601f0160208091040260200160405190810160405280929190818152602001828054610db390613253565b8015610e005780601f10610dd557610100808354040283529160200191610e00565b820191906000526020600020905b815481529060010190602001808311610de357829003601f168201915b5050505050905083565b610e1b610e156116fe565b836117bf565b610e5a576040517f08c379a0000000000000000000000000000000000000000000000000000000008152600401610e519061341a565b60405180910390fd5b610e6684848484611e3a565b50505050565b600c8054610e7990613253565b80601f0160208091040260200160405190810160405280929190818152602001828054610ea590613253565b8015610ef25780601f10610ec757610100808354040283529160200191610ef2565b820191906000526020600020905b815481529060010190602001808311610ed557829003601f168201915b505050505081565b6060610f0582611e96565b610f44576040517f08c379a0000000000000000000000000000000000000000000000000000000008152600401610f3b90613828565b60405180910390fd5b6000610f4f83611ed7565b9050600060096000858152602001908152602001600020604051806080016040529081600082018054610f8190613253565b80601f0160208091040260200160405190810160405280929190818152602001828054610fad90613253565b8015610ffa5780601f10610fcf57610100808354040283529160200191610ffa565b820191906000526020600020905b815481529060010190602001808311610fdd57829003601f168201915b5050505050815260200160018201805461101390613253565b80601f016020809104026020016040519081016040528092919081815260200182805461103f90613253565b801561108c5780601f106110615761010080835404028352916020019161108c565b820191906000526020600020905b81548152906001019060200180831161106f57829003601f168201915b505050505081526020016002820180546110a590613253565b80601f01602080910402602001604051908101604052809291908181526020018280546110d190613253565b801561111e5780601f106110f35761010080835404028352916020019161111e565b820191906000526020600020905b81548152906001019060200180831161110157829003601f168201915b5050505050815260200160038201805480602002602001604051908101604052809291908181526020016000905b8282101561121a578382906000526020600020906002020160405180604001604052908160008201805461117f90613253565b80601f01602080910402602001604051908101604052809291908181526020018280546111ab90613253565b80156111f85780601f106111cd576101008083540402835291602001916111f8565b820191906000526020600020905b8154815290600101906020018083116111db57829003601f168201915b505050505081526020016001820154815250508152602001906001019061114c565b5050505081525050905060008282600001518360200151600c86600d886112448960600151611fa5565b896040015160405160200161126199989796959493929190613c71565b604051602081830303815290604052905061127b8161204e565b60405160200161128b9190613dd6565b6040516020818303038152906040529350505050919050565b60006112b060086121b1565b90506112bc60086121bf565b6112c633826121d5565b846009600083815260200190815260200160002060000190816112e991906135e6565b508360096000838152602001908152602001600020600101908161130d91906135e6565b508260096000838152602001908152602001600020600201908161133191906135e6565b5060005b82518110156114035760096000838152602001908152602001600020600301604051806040016040528085848151811061137257611371613df8565b5b602002602001015160000151815260200185848151811061139657611395613df8565b5b602002602001015160200151815250908060018154018082558091505060019003906000526020600020906002020160009091909190915060008201518160000190816113e391906135e6565b5060208201518160010155505080806113fb90613e56565b915050611335565b506114168161141183610efa565b6121f3565b60005b825181101561152a57600083828151811061143757611436613df8565b5b602002602001015190506000600a82600001516040516114579190613e9e565b908152602001604051809103902054036114a557600b81600001519080600181540180825580915050600190039060005260206000200160009091909190915090816114a391906135e6565b505b8382815181106114b8576114b7613df8565b5b602002602001015160200151600a8584815181106114d9576114d8613df8565b5b6020026020010151600001516040516114f29190613e9e565b9081526020016040518091039020600082825461150f9190613eb5565b9250508190555050808061152290613e56565b915050611419565b505050505050565b6000600560008473ffffffffffffffffffffffffffffffffffffffff1673ffffffffffffffffffffffffffffffffffffffff16815260200190815260200160002060008373ffffffffffffffffffffffffffffffffffffffff1673ffffffffffffffffffffffffffffffffffffffff16815260200190815260200160002060009054906101000a900460ff16905092915050565b6115ce611b4d565b600073ffffffffffffffffffffffffffffffffffffffff168173ffffffffffffffffffffffffffffffffffffffff160361163d576040517f08c379a000000000000000000000000000000000000000000000000000000000815260040161163490613f5b565b60405180910390fd5b61164681611c08565b50565b60007f01ffc9a7000000000000000000000000000000000000000000000000000000007bffffffffffffffffffffffffffffffffffffffffffffffffffffffff1916827bffffffffffffffffffffffffffffffffffffffffffffffffffffffff1916149050919050565b6116bc81611e96565b6116fb576040517f08c379a00000000000000000000000000000000000000000000000000000000081526004016116f290613704565b60405180910390fd5b50565b600033905090565b816004600083815260200190815260200160002060006101000a81548173ffffffffffffffffffffffffffffffffffffffff021916908373ffffffffffffffffffffffffffffffffffffffff160217905550808273ffffffffffffffffffffffffffffffffffffffff1661177983610950565b73ffffffffffffffffffffffffffffffffffffffff167f8c5be1e5ebec7d5bd14f71427d1e84f3dd0314c0f7b2291e5b200ac8c7c3b92560405160405180910390a45050565b6000806117cb83610950565b90508073ffffffffffffffffffffffffffffffffffffffff168473ffffffffffffffffffffffffffffffffffffffff16148061180d575061180c8185611532565b5b8061184b57508373ffffffffffffffffffffffffffffffffffffffff1661183384610691565b73ffffffffffffffffffffffffffffffffffffffff16145b91505092915050565b8273ffffffffffffffffffffffffffffffffffffffff1661187482610950565b73ffffffffffffffffffffffffffffffffffffffff16146118ca576040517f08c379a00000000000000000000000000000000000000000000000000000000081526004016118c190613fed565b60405180910390fd5b600073ffffffffffffffffffffffffffffffffffffffff168273ffffffffffffffffffffffffffffffffffffffff1603611939576040517f08c379a00000000000000000000000000000000000000000000000000000000081526004016119309061407f565b60405180910390fd5b6119468383836001612260565b8273ffffffffffffffffffffffffffffffffffffffff1661196682610950565b73ffffffffffffffffffffffffffffffffffffffff16146119bc576040517f08c379a00000000000000000000000000000000000000000000000000000000081526004016119b390613fed565b60405180910390fd5b6004600082815260200190815260200160002060006101000a81549073ffffffffffffffffffffffffffffffffffffffff02191690556001600360008573ffffffffffffffffffffffffffffffffffffffff1673ffffffffffffffffffffffffffffffffffffffff168152602001908152602001600020600082825403925050819055506001600360008473ffffffffffffffffffffffffffffffffffffffff1673ffffffffffffffffffffffffffffffffffffffff16815260200190815260200160002060008282540192505081905550816002600083815260200190815260200160002060006101000a81548173ffffffffffffffffffffffffffffffffffffffff021916908373ffffffffffffffffffffffffffffffffffffffff160217905550808273ffffffffffffffffffffffffffffffffffffffff168473ffffffffffffffffffffffffffffffffffffffff167fddf252ad1be2c89b69c2b068fc378daa952ba7f163c4a11628f55a4df523b3ef60405160405180910390a4611b488383836001612386565b505050565b611b556116fe565b73ffffffffffffffffffffffffffffffffffffffff16611b73610b3b565b73ffffffffffffffffffffffffffffffffffffffff1614611bc9576040517f08c379a0000000000000000000000000000000000000000000000000000000008152600401611bc0906140eb565b60405180910390fd5b565b60006002600083815260200190815260200160002060009054906101000a900473ffffffffffffffffffffffffffffffffffffffff169050919050565b6000600760009054906101000a900473ffffffffffffffffffffffffffffffffffffffff16905081600760006101000a81548173ffffffffffffffffffffffffffffffffffffffff021916908373ffffffffffffffffffffffffffffffffffffffff1602179055508173ffffffffffffffffffffffffffffffffffffffff168173ffffffffffffffffffffffffffffffffffffffff167f8be0079c531659141344cd1fd0a4f28419497f9722a3daafe3b4186f6b6457e060405160405180910390a35050565b8173ffffffffffffffffffffffffffffffffffffffff168373ffffffffffffffffffffffffffffffffffffffff1603611d3c576040517f08c379a0000000000000000000000000000000000000000000000000000000008152600401611d3390614157565b60405180910390fd5b80600560008573ffffffffffffffffffffffffffffffffffffffff1673ffffffffffffffffffffffffffffffffffffffff16815260200190815260200160002060008473ffffffffffffffffffffffffffffffffffffffff1673ffffffffffffffffffffffffffffffffffffffff16815260200190815260200160002060006101000a81548160ff0219169083151502179055508173ffffffffffffffffffffffffffffffffffffffff168373ffffffffffffffffffffffffffffffffffffffff167f17307eab39ab6107e8899845ad3d59bd9653f200f220920489ca2b5937696c3183604051611e2d91906129b5565b60405180910390a3505050565b611e45848484611854565b611e518484848461238c565b611e90576040517f08c379a0000000000000000000000000000000000000000000000000000000008152600401611e87906141e9565b60405180910390fd5b50505050565b60008073ffffffffffffffffffffffffffffffffffffffff16611eb883611bcb565b73ffffffffffffffffffffffffffffffffffffffff1614159050919050565b606060006001611ee684612513565b01905060008167ffffffffffffffff811115611f0557611f04612c0a565b5b6040519080825280601f01601f191660200182016040528015611f375781602001600182028036833780820191505090505b509050600082602001820190505b600115611f9a578080600190039150507f3031323334353637383961626364656600000000000000000000000000000000600a86061a8153600a8581611f8e57611f8d614209565b5b04945060008503611f45575b819350505050919050565b6060600060405180602001604052806000815250905060005b83518110156120445781848281518110611fdb57611fda613df8565b5b60200260200101516000015161200e868481518110611ffd57611ffc613df8565b5b602002602001015160200151611ed7565b604051602001612020939291906142aa565b6040516020818303038152906040529150808061203c90613e56565b915050611fbe565b5080915050919050565b60606000825103612070576040518060200160405280600081525090506121ac565b60006040518060600160405280604081526020016145fd604091399050600060036002855161209f9190613eb5565b6120a99190614308565b60046120b59190614339565b67ffffffffffffffff8111156120ce576120cd612c0a565b5b6040519080825280601f01601f1916602001820160405280156121005781602001600182028036833780820191505090505b509050600182016020820185865187015b8082101561216c576003820191508151603f8160121c168501518453600184019350603f81600c1c168501518453600184019350603f8160061c168501518453600184019350603f8116850151845360018401935050612111565b5050600386510660018114612188576002811461219b576121a3565b603d6001830353603d60028303536121a3565b603d60018303535b50505080925050505b919050565b600081600001549050919050565b6001816000016000828254019250508190555050565b6121ef828260405180602001604052806000815250612666565b5050565b6121fc82611e96565b61223b576040517f08c379a0000000000000000000000000000000000000000000000000000000008152600401612232906143ed565b60405180910390fd5b8060066000848152602001908152602001600020908161225b91906135e6565b505050565b600181111561238057600073ffffffffffffffffffffffffffffffffffffffff168473ffffffffffffffffffffffffffffffffffffffff16146122f45780600360008673ffffffffffffffffffffffffffffffffffffffff1673ffffffffffffffffffffffffffffffffffffffff16815260200190815260200160002060008282546122ec919061440d565b925050819055505b600073ffffffffffffffffffffffffffffffffffffffff168373ffffffffffffffffffffffffffffffffffffffff161461237f5780600360008573ffffffffffffffffffffffffffffffffffffffff1673ffffffffffffffffffffffffffffffffffffffff16815260200190815260200160002060008282546123779190613eb5565b925050819055505b5b50505050565b50505050565b60006123ad8473ffffffffffffffffffffffffffffffffffffffff166126c1565b15612506578373ffffffffffffffffffffffffffffffffffffffff1663150b7a026123d66116fe565b8786866040518563ffffffff1660e01b81526004016123f89493929190614496565b6020604051808303816000875af192505050801561243457506040513d601f19601f8201168201806040525081019061243191906144f7565b60015b6124b6573d8060008114612464576040519150601f19603f3d011682016040523d82523d6000602084013e612469565b606091505b5060008151036124ae576040517f08c379a00000000000000000000000000000000000000000000000000000000081526004016124a5906141e9565b60405180910390fd5b805181602001fd5b63150b7a0260e01b7bffffffffffffffffffffffffffffffffffffffffffffffffffffffff1916817bffffffffffffffffffffffffffffffffffffffffffffffffffffffff19161491505061250b565b600190505b949350505050565b600080600090507a184f03e93ff9f4daa797ed6e38ed64bf6a1f0100000000000000008310612571577a184f03e93ff9f4daa797ed6e38ed64bf6a1f010000000000000000838161256757612566614209565b5b0492506040810190505b6d04ee2d6d415b85acef810000000083106125ae576d04ee2d6d415b85acef810000000083816125a4576125a3614209565b5b0492506020810190505b662386f26fc1000083106125dd57662386f26fc1000083816125d3576125d2614209565b5b0492506010810190505b6305f5e1008310612606576305f5e10083816125fc576125fb614209565b5b0492506008810190505b612710831061262b57612710838161262157612620614209565b5b0492506004810190505b6064831061264e576064838161264457612643614209565b5b0492506002810190505b600a831061265d576001810190505b80915050919050565b61267083836126e4565b61267d600084848461238c565b6126bc576040517f08c379a00000000000000000000000000000000000000000000000000000000081526004016126b3906141e9565b60405180910390fd5b505050565b6000808273ffffffffffffffffffffffffffffffffffffffff163b119050919050565b600073ffffffffffffffffffffffffffffffffffffffff168273ffffffffffffffffffffffffffffffffffffffff1603612753576040517f08c379a000000000000000000000000000000000000000000000000000000000815260040161274a90614570565b60405180910390fd5b61275c81611e96565b1561279c576040517f08c379a0000000000000000000000000000000000000000000000000000000008152600401612793906145dc565b60405180910390fd5b6127aa600083836001612260565b6127b381611e96565b156127f3576040517f08c379a00000000000000000000000000000000000000000000000000000000081526004016127ea906145dc565b60405180910390fd5b6001600360008473ffffffffffffffffffffffffffffffffffffffff1673ffffffffffffffffffffffffffffffffffffffff16815260200190815260200160002060008282540192505081905550816002600083815260200190815260200160002060006101000a81548173ffffffffffffffffffffffffffffffffffffffff021916908373ffffffffffffffffffffffffffffffffffffffff160217905550808273ffffffffffffffffffffffffffffffffffffffff16600073ffffffffffffffffffffffffffffffffffffffff167fddf252ad1be2c89b69c2b068fc378daa952ba7f163c4a11628f55a4df523b3ef60405160405180910390a46128fd600083836001612386565b5050565b6000604051905090565b600080fd5b600080fd5b60007fffffffff0000000000000000000000000000000000000000000000000000000082169050919050565b61294a81612915565b811461295557600080fd5b50565b60008135905061296781612941565b92915050565b6000602082840312156129835761298261290b565b5b600061299184828501612958565b91505092915050565b60008115159050919050565b6129af8161299a565b82525050565b60006020820190506129ca60008301846129a6565b92915050565b600081519050919050565b600082825260208201905092915050565b60005b83811015612a0a5780820151818401526020810190506129ef565b60008484015250505050565b6000601f19601f8301169050919050565b6000612a32826129d0565b612a3c81856129db565b9350612a4c8185602086016129ec565b612a5581612a16565b840191505092915050565b60006020820190508181036000830152612a7a8184612a27565b905092915050565b6000819050919050565b612a9581612a82565b8114612aa057600080fd5b50565b600081359050612ab281612a8c565b92915050565b600060208284031215612ace57612acd61290b565b5b6000612adc84828501612aa3565b91505092915050565b600073ffffffffffffffffffffffffffffffffffffffff82169050919050565b6000612b1082612ae5565b9050919050565b612b2081612b05565b82525050565b6000602082019050612b3b6000830184612b17565b92915050565b612b4a81612b05565b8114612b5557600080fd5b50565b600081359050612b6781612b41565b92915050565b60008060408385031215612b8457612b8361290b565b5b6000612b9285828601612b58565b9250506020612ba385828601612aa3565b9150509250929050565b600080600060608486031215612bc657612bc561290b565b5b6000612bd486828701612b58565b9350506020612be586828701612b58565b9250506040612bf686828701612aa3565b9150509250925092565b600080fd5b600080fd5b7f4e487b7100000000000000000000000000000000000000000000000000000000600052604160045260246000fd5b612c4282612a16565b810181811067ffffffffffffffff82111715612c6157612c60612c0a565b5b80604052505050565b6000612c74612901565b9050612c808282612c39565b919050565b600067ffffffffffffffff821115612ca057612c9f612c0a565b5b612ca982612a16565b9050602081019050919050565b82818337600083830152505050565b6000612cd8612cd384612c85565b612c6a565b905082815260208101848484011115612cf457612cf3612c05565b5b612cff848285612cb6565b509392505050565b600082601f830112612d1c57612d1b612c00565b5b8135612d2c848260208601612cc5565b91505092915050565b600060208284031215612d4b57612d4a61290b565b5b600082013567ffffffffffffffff811115612d6957612d68612910565b5b612d7584828501612d07565b91505092915050565b600060208284031215612d9457612d9361290b565b5b6000612da284828501612b58565b91505092915050565b612db481612a82565b82525050565b6000602082019050612dcf6000830184612dab565b92915050565b612dde8161299a565b8114612de957600080fd5b50565b600081359050612dfb81612dd5565b92915050565b60008060408385031215612e1857612e1761290b565b5b6000612e2685828601612b58565b9250506020612e3785828601612dec565b9150509250929050565b60006060820190508181036000830152612e5b8186612a27565b90508181036020830152612e6f8185612a27565b90508181036040830152612e838184612a27565b9050949350505050565b600067ffffffffffffffff821115612ea857612ea7612c0a565b5b612eb182612a16565b9050602081019050919050565b6000612ed1612ecc84612e8d565b612c6a565b905082815260208101848484011115612eed57612eec612c05565b5b612ef8848285612cb6565b509392505050565b600082601f830112612f1557612f14612c00565b5b8135612f25848260208601612ebe565b91505092915050565b60008060008060808587031215612f4857612f4761290b565b5b6000612f5687828801612b58565b9450506020612f6787828801612b58565b9350506040612f7887828801612aa3565b925050606085013567ffffffffffffffff811115612f9957612f98612910565b5b612fa587828801612f00565b91505092959194509250565b600067ffffffffffffffff821115612fcc57612fcb612c0a565b5b602082029050602081019050919050565b600080fd5b600080fd5b600080fd5b60006040828403121561300257613001612fe2565b5b61300c6040612c6a565b9050600082013567ffffffffffffffff81111561302c5761302b612fe7565b5b61303884828501612d07565b600083015250602061304c84828501612aa3565b60208301525092915050565b600061306b61306684612fb1565b612c6a565b9050808382526020820190506020840283018581111561308e5761308d612fdd565b5b835b818110156130d557803567ffffffffffffffff8111156130b3576130b2612c00565b5b8086016130c08982612fec565b85526020850194505050602081019050613090565b5050509392505050565b600082601f8301126130f4576130f3612c00565b5b8135613104848260208601613058565b91505092915050565b600080600080608085870312156131275761312661290b565b5b600085013567ffffffffffffffff81111561314557613144612910565b5b61315187828801612d07565b945050602085013567ffffffffffffffff81111561317257613171612910565b5b61317e87828801612d07565b935050604085013567ffffffffffffffff81111561319f5761319e612910565b5b6131ab87828801612d07565b925050606085013567ffffffffffffffff8111156131cc576131cb612910565b5b6131d8878288016130df565b91505092959194509250565b600080604083850312156131fb576131fa61290b565b5b600061320985828601612b58565b925050602061321a85828601612b58565b9150509250929050565b7f4e487b7100000000000000000000000000000000000000000000000000000000600052602260045260246000fd5b6000600282049050600182168061326b57607f821691505b60208210810361327e5761327d613224565b5b50919050565b7f4552433732313a20617070726f76616c20746f2063757272656e74206f776e6560008201527f7200000000000000000000000000000000000000000000000000000000000000602082015250565b60006132e06021836129db565b91506132eb82613284565b604082019050919050565b6000602082019050818103600083015261330f816132d3565b9050919050565b7f4552433732313a20617070726f76652063616c6c6572206973206e6f7420746f60008201527f6b656e206f776e6572206f7220617070726f76656420666f7220616c6c000000602082015250565b6000613372603d836129db565b915061337d82613316565b604082019050919050565b600060208201905081810360008301526133a181613365565b9050919050565b7f4552433732313a2063616c6c6572206973206e6f7420746f6b656e206f776e6560008201527f72206f7220617070726f76656400000000000000000000000000000000000000602082015250565b6000613404602d836129db565b915061340f826133a8565b604082019050919050565b60006020820190508181036000830152613433816133f7565b9050919050565b60008190508160005260206000209050919050565b60006020601f8301049050919050565b600082821b905092915050565b60006008830261349c7fffffffffffffffffffffffffffffffffffffffffffffffffffffffffffffffff8261345f565b6134a6868361345f565b95508019841693508086168417925050509392505050565b6000819050919050565b60006134e36134de6134d984612a82565b6134be565b612a82565b9050919050565b6000819050919050565b6134fd836134c8565b613511613509826134ea565b84845461346c565b825550505050565b600090565b613526613519565b6135318184846134f4565b505050565b5b818110156135555761354a60008261351e565b600181019050613537565b5050565b601f82111561359a5761356b8161343a565b6135748461344f565b81016020851015613583578190505b61359761358f8561344f565b830182613536565b50505b505050565b600082821c905092915050565b60006135bd6000198460080261359f565b1980831691505092915050565b60006135d683836135ac565b9150826002028217905092915050565b6135ef826129d0565b67ffffffffffffffff81111561360857613607612c0a565b5b6136128254613253565b61361d828285613559565b600060209050601f831160018114613650576000841561363e578287015190505b61364885826135ca565b8655506136b0565b601f19841661365e8661343a565b60005b8281101561368657848901518255600182019150602085019450602081019050613661565b868310156136a3578489015161369f601f8916826135ac565b8355505b6001600288020188555050505b505050505050565b7f4552433732313a20696e76616c696420746f6b656e2049440000000000000000600082015250565b60006136ee6018836129db565b91506136f9826136b8565b602082019050919050565b6000602082019050818103600083015261371d816136e1565b9050919050565b7f4552433732313a2061646472657373207a65726f206973206e6f74206120766160008201527f6c6964206f776e65720000000000000000000000000000000000000000000000602082015250565b60006137806029836129db565b915061378b82613724565b604082019050919050565b600060208201905081810360008301526137af81613773565b9050919050565b7f4552433732314d657461646174613a2055524920717565727920666f72206e6f60008201527f6e6578697374656e7420746f6b656e0000000000000000000000000000000000602082015250565b6000613812602f836129db565b915061381d826137b6565b604082019050919050565b6000602082019050818103600083015261384181613805565b9050919050565b600081905092915050565b7f7b00000000000000000000000000000000000000000000000000000000000000600082015250565b6000613889600183613848565b915061389482613853565b600182019050919050565b7f226e616d65223a202246616e6669632023000000000000000000000000000000600082015250565b60006138d5601183613848565b91506138e08261389f565b601182019050919050565b60006138f6826129d0565b6139008185613848565b93506139108185602086016129ec565b80840191505092915050565b7f3a20000000000000000000000000000000000000000000000000000000000000600082015250565b6000613952600283613848565b915061395d8261391c565b600282019050919050565b7f222c000000000000000000000000000000000000000000000000000000000000600082015250565b600061399e600283613848565b91506139a982613968565b600282019050919050565b7f226465736372697074696f6e223a202200000000000000000000000000000000600082015250565b60006139ea601083613848565b91506139f5826139b4565b601082019050919050565b7f2265787465726e616c5f75726c223a2022000000000000000000000000000000600082015250565b6000613a36601183613848565b9150613a4182613a00565b601182019050919050565b60008154613a5981613253565b613a638186613848565b94506001821660008114613a7e5760018114613a9357613ac6565b60ff1983168652811515820286019350613ac6565b613a9c8561343a565b60005b83811015613abe57815481890152600182019150602081019050613a9f565b838801955050505b50505092915050565b7f22696d6167655f64617461223a20220000000000000000000000000000000000600082015250565b6000613b05600f83613848565b9150613b1082613acf565b600f82019050919050565b7f2261747472696275746573223a205b0000000000000000000000000000000000600082015250565b6000613b51600f83613848565b9150613b5c82613b1b565b600f82019050919050565b7f7b2274726169745f7479706522203a202246616e646f6d222c202276616c756560008201527f223a202200000000000000000000000000000000000000000000000000000000602082015250565b6000613bc3602483613848565b9150613bce82613b67565b602482019050919050565b7f227d000000000000000000000000000000000000000000000000000000000000600082015250565b6000613c0f600283613848565b9150613c1a82613bd9565b600282019050919050565b7f5d7d000000000000000000000000000000000000000000000000000000000000600082015250565b6000613c5b600283613848565b9150613c6682613c25565b600282019050919050565b6000613c7c8261387c565b9150613c87826138c8565b9150613c93828c6138eb565b9150613c9e82613945565b9150613caa828b6138eb565b9150613cb582613991565b9150613cc0826139dd565b9150613ccc828a6138eb565b9150613cd782613991565b9150613ce282613a29565b9150613cee8289613a4c565b9150613cfa82886138eb565b9150613d0582613991565b9150613d1082613af8565b9150613d1c8287613a4c565b9150613d2882866138eb565b9150613d3382613991565b9150613d3e82613b44565b9150613d4a82856138eb565b9150613d5582613bb6565b9150613d6182846138eb565b9150613d6c82613c02565b9150613d7782613c4e565b91508190509a9950505050505050505050565b7f646174613a6170706c69636174696f6e2f6a736f6e3b6261736536342c000000600082015250565b6000613dc0601d83613848565b9150613dcb82613d8a565b601d82019050919050565b6000613de182613db3565b9150613ded82846138eb565b915081905092915050565b7f4e487b7100000000000000000000000000000000000000000000000000000000600052603260045260246000fd5b7f4e487b7100000000000000000000000000000000000000000000000000000000600052601160045260246000fd5b6000613e6182612a82565b91507fffffffffffffffffffffffffffffffffffffffffffffffffffffffffffffffff8203613e9357613e92613e27565b5b600182019050919050565b6000613eaa82846138eb565b915081905092915050565b6000613ec082612a82565b9150613ecb83612a82565b9250828201905080821115613ee357613ee2613e27565b5b92915050565b7f4f776e61626c653a206e6577206f776e657220697320746865207a65726f206160008201527f6464726573730000000000000000000000000000000000000000000000000000602082015250565b6000613f456026836129db565b9150613f5082613ee9565b604082019050919050565b60006020820190508181036000830152613f7481613f38565b9050919050565b7f4552433732313a207472616e736665722066726f6d20696e636f72726563742060008201527f6f776e6572000000000000000000000000000000000000000000000000000000602082015250565b6000613fd76025836129db565b9150613fe282613f7b565b604082019050919050565b6000602082019050818103600083015261400681613fca565b9050919050565b7f4552433732313a207472616e7366657220746f20746865207a65726f2061646460008201527f7265737300000000000000000000000000000000000000000000000000000000602082015250565b60006140696024836129db565b91506140748261400d565b604082019050919050565b600060208201905081810360008301526140988161405c565b9050919050565b7f4f776e61626c653a2063616c6c6572206973206e6f7420746865206f776e6572600082015250565b60006140d56020836129db565b91506140e08261409f565b602082019050919050565b60006020820190508181036000830152614104816140c8565b9050919050565b7f4552433732313a20617070726f766520746f2063616c6c657200000000000000600082015250565b60006141416019836129db565b915061414c8261410b565b602082019050919050565b6000602082019050818103600083015261417081614134565b9050919050565b7f4552433732313a207472616e7366657220746f206e6f6e20455243373231526560008201527f63656976657220696d706c656d656e7465720000000000000000000000000000602082015250565b60006141d36032836129db565b91506141de82614177565b604082019050919050565b60006020820190508181036000830152614202816141c6565b9050919050565b7f4e487b7100000000000000000000000000000000000000000000000000000000600052601260045260246000fd5b7f7b2274726169745f74797065223a202200000000000000000000000000000000815250565b7f222c202276616c7565223a200000000000000000000000000000000000000000815250565b7f7d2c000000000000000000000000000000000000000000000000000000000000815250565b60006142b682866138eb565b91506142c182614238565b6010820191506142d182856138eb565b91506142dc8261425e565b600c820191506142ec82846138eb565b91506142f782614284565b600282019150819050949350505050565b600061431382612a82565b915061431e83612a82565b92508261432e5761432d614209565b5b828204905092915050565b600061434482612a82565b915061434f83612a82565b925082820261435d81612a82565b9150828204841483151761437457614373613e27565b5b5092915050565b7f45524337323155524953746f726167653a2055524920736574206f66206e6f6e60008201527f6578697374656e7420746f6b656e000000000000000000000000000000000000602082015250565b60006143d7602e836129db565b91506143e28261437b565b604082019050919050565b60006020820190508181036000830152614406816143ca565b9050919050565b600061441882612a82565b915061442383612a82565b925082820390508181111561443b5761443a613e27565b5b92915050565b600081519050919050565b600082825260208201905092915050565b600061446882614441565b614472818561444c565b93506144828185602086016129ec565b61448b81612a16565b840191505092915050565b60006080820190506144ab6000830187612b17565b6144b86020830186612b17565b6144c56040830185612dab565b81810360608301526144d7818461445d565b905095945050505050565b6000815190506144f181612941565b92915050565b60006020828403121561450d5761450c61290b565b5b600061451b848285016144e2565b91505092915050565b7f4552433732313a206d696e7420746f20746865207a65726f2061646472657373600082015250565b600061455a6020836129db565b915061456582614524565b602082019050919050565b600060208201905081810360008301526145898161454d565b9050919050565b7f4552433732313a20746f6b656e20616c7265616479206d696e74656400000000600082015250565b60006145c6601c836129db565b91506145d182614590565b602082019050919050565b600060208201905081810360008301526145f5816145b9565b905091905056fe4142434445464748494a4b4c4d4e4f505152535455565758595a6162636465666768696a6b6c6d6e6f707172737475767778797a303132333435363738392b2fa2646970667358221220327e58f8197b79703a717b30375d864b854de225538c1ada3de3a11ad49acce664736f6c6343000811003368747470733a2f2f6578616d706c652e636f6d2f6170692f3f746f6b656e49643d",
  "linkReferences": {},
  "deployedLinkReferences": {}
}